{
    "contractName": "CentherStakingV1",
    "abi": [
        {
            "inputs": [
                {
                    "internalType": "address",
                    "name": "_registration",
                    "type": "address"
                },
                {
                    "internalType": "address",
                    "name": "_platform",
                    "type": "address"
                }
            ],
            "stateMutability": "nonpayable",
            "type": "constructor"
        },
        {
            "inputs": [],
            "name": "AlreadySetted",
            "type": "error"
        },
        {
            "inputs": [],
            "name": "AmountGreaterThanStakedAmount",
            "type": "error"
        },
        {
            "inputs": [],
            "name": "GiveMaxAllowanceOfRewardToken",
            "type": "error"
        },
        {
            "inputs": [],
            "name": "InsufficientBalance",
            "type": "error"
        },
        {
            "inputs": [],
            "name": "InvalidPoolOwner",
            "type": "error"
        },
        {
            "inputs": [],
            "name": "InvalidRewardRate",
            "type": "error"
        },
        {
            "inputs": [],
            "name": "InvalidStakeAmount",
            "type": "error"
        },
        {
            "inputs": [],
            "name": "InvalidStakingDuration",
            "type": "error"
        },
        {
            "inputs": [],
            "name": "InvalidTokenAddress",
            "type": "error"
        },
        {
            "inputs": [],
            "name": "Locked",
            "type": "error"
        },
        {
            "inputs": [],
            "name": "MaxStakableAmountReached",
            "type": "error"
        },
        {
            "inputs": [],
            "name": "NotRegistered",
            "type": "error"
        },
        {
            "inputs": [],
            "name": "NotValidReferral",
            "type": "error"
        },
        {
            "inputs": [],
            "name": "OnlyPoolOwnerCanAccess",
            "type": "error"
        },
        {
            "inputs": [],
            "name": "OwnerNotEnoughBalanceToReturnStakeAmount",
            "type": "error"
        },
        {
            "inputs": [],
            "name": "PoolNotActive",
            "type": "error"
        },
        {
            "inputs": [],
            "name": "PoolNotExist",
            "type": "error"
        },
        {
            "inputs": [],
            "name": "PoolOwnerNotEligibleToStake",
            "type": "error"
        },
        {
            "inputs": [],
            "name": "ThisPoolNotValidForRestaking",
            "type": "error"
        },
        {
            "inputs": [],
            "name": "UserStakeNotFound",
            "type": "error"
        },
        {
            "inputs": [],
            "name": "ValueNotEqualToPlatformFees",
            "type": "error"
        },
        {
            "anonymous": false,
            "inputs": [
                {
                    "indexed": false,
                    "internalType": "uint256",
                    "name": "poolId",
                    "type": "uint256"
                },
                {
                    "indexed": false,
                    "internalType": "address",
                    "name": "user",
                    "type": "address"
                },
                {
                    "indexed": false,
                    "internalType": "uint256",
                    "name": "amount",
                    "type": "uint256"
                }
            ],
            "name": "AmountStaked",
            "type": "event"
        },
        {
            "anonymous": false,
            "inputs": [
                {
                    "indexed": false,
                    "internalType": "uint256",
                    "name": "poolId",
                    "type": "uint256"
                },
                {
                    "indexed": false,
                    "internalType": "address",
                    "name": "user",
                    "type": "address"
                },
                {
                    "indexed": false,
                    "internalType": "uint256",
                    "name": "amount",
                    "type": "uint256"
                }
            ],
            "name": "AmountUnstaked",
            "type": "event"
        },
        {
            "anonymous": false,
            "inputs": [
                {
                    "indexed": false,
                    "internalType": "uint256",
                    "name": "poolId",
                    "type": "uint256"
                },
                {
                    "indexed": false,
                    "internalType": "address",
                    "name": "rewardToken",
                    "type": "address"
                },
                {
                    "indexed": false,
                    "internalType": "address",
                    "name": "user",
                    "type": "address"
                },
                {
                    "indexed": false,
                    "internalType": "address",
                    "name": "refferer",
                    "type": "address"
                },
                {
                    "indexed": false,
                    "internalType": "uint256",
                    "name": "amount",
                    "type": "uint256"
                }
            ],
            "name": "ReferralRewardTransfer",
            "type": "event"
        },
        {
            "anonymous": false,
            "inputs": [
                {
                    "indexed": false,
                    "internalType": "uint256",
                    "name": "poolId",
                    "type": "uint256"
                },
                {
                    "indexed": false,
                    "internalType": "address",
                    "name": "user",
                    "type": "address"
                },
                {
                    "indexed": false,
                    "internalType": "uint256",
                    "name": "amount",
                    "type": "uint256"
                }
            ],
            "name": "RewardClaimed",
            "type": "event"
        },
        {
            "anonymous": false,
            "inputs": [
                {
                    "components": [
                        {
                            "internalType": "address",
                            "name": "poolOwner",
                            "type": "address"
                        },
                        {
                            "internalType": "address",
                            "name": "stakeToken",
                            "type": "address"
                        },
                        {
                            "internalType": "address",
                            "name": "rewardToken",
                            "type": "address"
                        },
                        {
                            "internalType": "uint256",
                            "name": "rewardSupply",
                            "type": "uint256"
                        },
                        {
                            "internalType": "uint256",
                            "name": "annualStakingRewardRate",
                            "type": "uint256"
                        },
                        {
                            "internalType": "uint256",
                            "name": "stakingDurationPeriod",
                            "type": "uint256"
                        },
                        {
                            "internalType": "uint8",
                            "name": "claimDuration",
                            "type": "uint8"
                        },
                        {
                            "internalType": "uint256",
                            "name": "totalStakedAmount",
                            "type": "uint256"
                        },
                        {
                            "components": [
                                {
                                    "internalType": "uint256",
                                    "name": "minStakeAmount",
                                    "type": "uint256"
                                },
                                {
                                    "internalType": "uint256",
                                    "name": "maxStakeAmount",
                                    "type": "uint256"
                                },
                                {
                                    "internalType": "uint256",
                                    "name": "firstReward",
                                    "type": "uint256"
                                },
                                {
                                    "internalType": "uint256",
                                    "name": "maxStakableAmount",
                                    "type": "uint256"
                                },
                                {
                                    "internalType": "enum ICentherStaking.RefMode",
                                    "name": "rewardModeForRef",
                                    "type": "uint8"
                                },
                                {
                                    "internalType": "uint256",
                                    "name": "cancellationFees",
                                    "type": "uint256"
                                },
                                {
                                    "internalType": "bool",
                                    "name": "isUnstakable",
                                    "type": "bool"
                                },
                                {
                                    "internalType": "bool",
                                    "name": "isLP",
                                    "type": "bool"
                                },
                                {
                                    "internalType": "bool",
                                    "name": "isActive",
                                    "type": "bool"
                                }
                            ],
                            "internalType": "struct ICentherStaking.PoolSetting",
                            "name": "poolSetting",
                            "type": "tuple"
                        }
                    ],
                    "indexed": false,
                    "internalType": "struct ICentherStaking.PoolInfo",
                    "name": "poolInfo",
                    "type": "tuple"
                },
                {
                    "indexed": false,
                    "internalType": "string",
                    "name": "metadataUri",
                    "type": "string"
                }
            ],
            "name": "StakingPoolCreated",
            "type": "event"
        },
        {
            "inputs": [
                {
                    "internalType": "uint256",
                    "name": "poolId",
                    "type": "uint256"
                },
                {
                    "internalType": "address",
                    "name": "user",
                    "type": "address"
                }
            ],
            "name": "calculateBatchReward",
            "outputs": [
                {
                    "internalType": "uint256[]",
                    "name": "amounts",
                    "type": "uint256[]"
                },
                {
                    "internalType": "uint256",
                    "name": "totalReward",
                    "type": "uint256"
                }
            ],
            "stateMutability": "view",
            "type": "function"
        },
        {
            "inputs": [
                {
                    "internalType": "uint256",
                    "name": "poolId",
                    "type": "uint256"
                },
                {
                    "internalType": "address",
                    "name": "user",
                    "type": "address"
                }
            ],
            "name": "calculateReward",
            "outputs": [
                {
                    "internalType": "uint256",
                    "name": "reward",
                    "type": "uint256"
                }
            ],
            "stateMutability": "view",
            "type": "function"
        },
        {
            "inputs": [
                {
                    "internalType": "uint256",
                    "name": "_poolId",
                    "type": "uint256"
                },
                {
                    "internalType": "address",
                    "name": "_user",
                    "type": "address"
                }
            ],
            "name": "calculateTimeBasedRewardForRef",
            "outputs": [
                {
                    "internalType": "uint256",
                    "name": "totalReward",
                    "type": "uint256"
                }
            ],
            "stateMutability": "view",
            "type": "function"
        },
        {
            "inputs": [
                {
                    "internalType": "uint256",
                    "name": "_poolId",
                    "type": "uint256"
                }
            ],
            "name": "claimReward",
            "outputs": [],
            "stateMutability": "nonpayable",
            "type": "function"
        },
        {
            "inputs": [
                {
                    "internalType": "uint256",
                    "name": "_poolId",
                    "type": "uint256"
                }
            ],
            "name": "claimRewardsForRestakers",
            "outputs": [],
            "stateMutability": "nonpayable",
            "type": "function"
        },
        {
            "inputs": [
                {
                    "internalType": "uint256",
                    "name": "_poolId",
                    "type": "uint256"
                }
            ],
            "name": "claimTimeBasedRewardForRef",
            "outputs": [],
            "stateMutability": "nonpayable",
            "type": "function"
        },
        {
            "inputs": [
                {
                    "components": [
                        {
                            "internalType": "address",
                            "name": "stakeToken",
                            "type": "address"
                        },
                        {
                            "internalType": "address",
                            "name": "rewardToken",
                            "type": "address"
                        },
                        {
                            "internalType": "uint256",
                            "name": "annualStakingRewardRate",
                            "type": "uint256"
                        },
                        {
                            "internalType": "uint256",
                            "name": "minStakeAmount",
                            "type": "uint256"
                        },
                        {
                            "internalType": "uint256",
                            "name": "maxStakeAmount",
                            "type": "uint256"
                        },
                        {
                            "internalType": "uint256",
                            "name": "stakingDurationPeriod",
                            "type": "uint256"
                        },
                        {
                            "internalType": "uint8",
                            "name": "claimDuration",
                            "type": "uint8"
                        },
                        {
                            "internalType": "uint8",
                            "name": "rewardModeForRef",
                            "type": "uint8"
                        },
                        {
                            "internalType": "uint256",
                            "name": "firstReward",
                            "type": "uint256"
                        },
                        {
                            "internalType": "uint256",
                            "name": "maxStakableAmount",
                            "type": "uint256"
                        },
                        {
                            "internalType": "uint256",
                            "name": "cancellationFees",
                            "type": "uint256"
                        },
                        {
                            "internalType": "string",
                            "name": "poolMetadata",
                            "type": "string"
                        },
                        {
                            "internalType": "bool",
                            "name": "isUnstakable",
                            "type": "bool"
                        },
                        {
                            "internalType": "bool",
                            "name": "isLP",
                            "type": "bool"
                        }
                    ],
                    "internalType": "struct ICentherStaking.PoolCreationInputs",
                    "name": "_info",
                    "type": "tuple"
                },
                {
                    "internalType": "uint256[]",
                    "name": "_settings",
                    "type": "uint256[]"
                }
            ],
            "name": "createPool",
            "outputs": [],
            "stateMutability": "payable",
            "type": "function"
        },
        {
            "inputs": [
                {
                    "internalType": "uint256",
                    "name": "",
                    "type": "uint256"
                }
            ],
            "name": "idToPoolInfo",
            "outputs": [
                {
                    "internalType": "address",
                    "name": "poolOwner",
                    "type": "address"
                },
                {
                    "internalType": "address",
                    "name": "stakeToken",
                    "type": "address"
                },
                {
                    "internalType": "address",
                    "name": "rewardToken",
                    "type": "address"
                },
                {
                    "internalType": "uint256",
                    "name": "rewardSupply",
                    "type": "uint256"
                },
                {
                    "internalType": "uint256",
                    "name": "annualStakingRewardRate",
                    "type": "uint256"
                },
                {
                    "internalType": "uint256",
                    "name": "stakingDurationPeriod",
                    "type": "uint256"
                },
                {
                    "internalType": "uint8",
                    "name": "claimDuration",
                    "type": "uint8"
                },
                {
                    "internalType": "uint256",
                    "name": "totalStakedAmount",
                    "type": "uint256"
                },
                {
                    "components": [
                        {
                            "internalType": "uint256",
                            "name": "minStakeAmount",
                            "type": "uint256"
                        },
                        {
                            "internalType": "uint256",
                            "name": "maxStakeAmount",
                            "type": "uint256"
                        },
                        {
                            "internalType": "uint256",
                            "name": "firstReward",
                            "type": "uint256"
                        },
                        {
                            "internalType": "uint256",
                            "name": "maxStakableAmount",
                            "type": "uint256"
                        },
                        {
                            "internalType": "enum ICentherStaking.RefMode",
                            "name": "rewardModeForRef",
                            "type": "uint8"
                        },
                        {
                            "internalType": "uint256",
                            "name": "cancellationFees",
                            "type": "uint256"
                        },
                        {
                            "internalType": "bool",
                            "name": "isUnstakable",
                            "type": "bool"
                        },
                        {
                            "internalType": "bool",
                            "name": "isLP",
                            "type": "bool"
                        },
                        {
                            "internalType": "bool",
                            "name": "isActive",
                            "type": "bool"
                        }
                    ],
                    "internalType": "struct ICentherStaking.PoolSetting",
                    "name": "poolSetting",
                    "type": "tuple"
                }
            ],
            "stateMutability": "view",
            "type": "function"
        },
        {
            "inputs": [
                {
                    "internalType": "uint256",
                    "name": "",
                    "type": "uint256"
                },
                {
                    "internalType": "uint256",
                    "name": "",
                    "type": "uint256"
                }
            ],
            "name": "idToSettings",
            "outputs": [
                {
                    "internalType": "uint8",
                    "name": "level",
                    "type": "uint8"
                },
                {
                    "internalType": "uint256",
                    "name": "percent",
                    "type": "uint256"
                }
            ],
            "stateMutability": "view",
            "type": "function"
        },
        {
            "inputs": [],
            "name": "platform",
            "outputs": [
                {
                    "internalType": "address",
                    "name": "",
                    "type": "address"
                }
            ],
            "stateMutability": "view",
            "type": "function"
        },
        {
            "inputs": [],
            "name": "platformFees",
            "outputs": [
                {
                    "internalType": "uint256",
                    "name": "",
                    "type": "uint256"
                }
            ],
            "stateMutability": "view",
            "type": "function"
        },
        {
            "inputs": [],
            "name": "poolIds",
            "outputs": [
                {
                    "internalType": "uint256",
                    "name": "",
                    "type": "uint256"
                }
            ],
            "stateMutability": "view",
            "type": "function"
        },
        {
            "inputs": [],
            "name": "register",
            "outputs": [
                {
                    "internalType": "contract IRegistration",
                    "name": "",
                    "type": "address"
                }
            ],
            "stateMutability": "view",
            "type": "function"
        },
        {
            "inputs": [
                {
                    "internalType": "uint256",
                    "name": "_poolId",
                    "type": "uint256"
                },
                {
                    "internalType": "uint256",
                    "name": "_amount",
                    "type": "uint256"
                },
                {
                    "internalType": "address",
                    "name": "referral",
                    "type": "address"
                }
            ],
            "name": "stake",
            "outputs": [],
            "stateMutability": "nonpayable",
            "type": "function"
        },
        {
            "inputs": [
                {
                    "internalType": "uint256",
                    "name": "_poolId",
                    "type": "uint256"
                },
                {
                    "internalType": "bool",
                    "name": "_newState",
                    "type": "bool"
                }
            ],
            "name": "togglePoolState",
            "outputs": [],
            "stateMutability": "nonpayable",
            "type": "function"
        },
        {
            "inputs": [
                {
                    "internalType": "uint256",
                    "name": "_poolId",
                    "type": "uint256"
                },
                {
                    "internalType": "uint256",
                    "name": "_amount",
                    "type": "uint256"
                }
            ],
            "name": "unstake",
            "outputs": [],
            "stateMutability": "nonpayable",
            "type": "function"
        },
        {
            "inputs": [
                {
                    "internalType": "uint256",
                    "name": "",
                    "type": "uint256"
                },
                {
                    "internalType": "address",
                    "name": "",
                    "type": "address"
                }
            ],
            "name": "userAddressToReferrerAddress",
            "outputs": [
                {
                    "internalType": "address",
                    "name": "",
                    "type": "address"
                }
            ],
            "stateMutability": "view",
            "type": "function"
        },
        {
            "inputs": [
                {
                    "internalType": "uint256",
                    "name": "",
                    "type": "uint256"
                },
                {
                    "internalType": "address",
                    "name": "",
                    "type": "address"
                }
            ],
            "name": "userInfo",
            "outputs": [
                {
                    "internalType": "uint256",
                    "name": "stakedTime",
                    "type": "uint256"
                },
                {
                    "internalType": "uint256",
                    "name": "stakedAmount",
                    "type": "uint256"
                },
                {
                    "internalType": "uint256",
                    "name": "lastRewardClaimed",
                    "type": "uint256"
                },
                {
                    "internalType": "uint256",
                    "name": "claimedReward",
                    "type": "uint256"
                },
                {
                    "internalType": "uint256",
                    "name": "stakingDuration",
                    "type": "uint256"
                },
                {
                    "internalType": "uint256",
                    "name": "totalStakes",
                    "type": "uint256"
                },
                {
                    "internalType": "bool",
                    "name": "isRestaked",
                    "type": "bool"
                }
            ],
            "stateMutability": "view",
            "type": "function"
        }
    ],
    "bytecode": "60806040526001805463ffffffff60a01b1916600160a01b1790556509184e72a0006002553480156200003157600080fd5b5060405162003e8938038062003e898339810160408190526200005491620000a3565b600180546001600160a01b039384166001600160a01b03199182161790915560008054929093169116179055620000db565b80516001600160a01b03811681146200009e57600080fd5b919050565b60008060408385031215620000b757600080fd5b620000c28362000086565b9150620000d26020840162000086565b90509250929050565b613d9e80620000eb6000396000f3fe6080604052600436106101095760003560e01c80639981b08a11610095578063a18f07a011610064578063a18f07a01461037d578063a59c55ee1461039d578063ae169a50146103d2578063b8b73d5e146103f2578063c632a4531461041257600080fd5b80639981b08a146102f35780639bc38a56146103065780639e2c8a5b1461031c5780639efdae991461033c57600080fd5b80634f957618116100dc5780634f957618146101b15780637628a37d146101ea5780638af350321461020a5780639170947e1461022a57806393f1a40b1461025857600080fd5b80630250cc361461010e578063194a4e7e146101305780631aa3a008146101595780634bde38c814610191575b600080fd5b34801561011a57600080fd5b5061012e610129366004613700565b610432565b005b34801561013c57600080fd5b5061014660025481565b6040519081526020015b60405180910390f35b34801561016557600080fd5b50600154610179906001600160a01b031681565b6040516001600160a01b039091168152602001610150565b34801561019d57600080fd5b50600054610179906001600160a01b031681565b3480156101bd57600080fd5b506101d16101cc366004613719565b61053d565b6040805160ff9093168352602083019190915201610150565b3480156101f657600080fd5b5061012e610205366004613752565b61057d565b34801561021657600080fd5b5061012e610225366004613700565b610df2565b34801561023657600080fd5b5061024a610245366004613787565b611256565b6040516101509291906137b3565b34801561026457600080fd5b506102bc610273366004613787565b6005602081815260009384526040808520909152918352912080546001820154600283015460038401546004850154958501546006909501549395929491939092919060ff1687565b604080519788526020880196909652948601939093526060850191909152608084015260a0830152151560c082015260e001610150565b61012e610301366004613811565b6112e0565b34801561031257600080fd5b5061014660035481565b34801561032857600080fd5b5061012e610337366004613719565b611931565b34801561034857600080fd5b50610179610357366004613787565b60076020908152600092835260408084209091529082529020546001600160a01b031681565b34801561038957600080fd5b50610146610398366004613787565b61214f565b3480156103a957600080fd5b506103bd6103b8366004613700565b612493565b60405161015099989796959493929190613934565b3480156103de57600080fd5b5061012e6103ed366004613700565b612591565b3480156103fe57600080fd5b5061012e61040d366004613a08565b612931565b34801561041e57600080fd5b5061014661042d366004613787565b6129d6565b600061043e82336129d6565b6000838152600460208190526040918290206002810154905492516323b872dd60e01b81529394506001600160a01b03908116936323b872dd93610489939216913391879101613a38565b6020604051808303816000875af11580156104a8573d6000803e3d6000fd5b505050506040513d601f19601f820116820180604052508101906104cc9190613a5c565b506000828152600460209081526040918290206002015482518581526001600160a01b03909116918101919091523381830181905260608201526080810183905290517ff4efa0d3c3b96e7d8ff7cf96eb58a178cb176b2abd451754a67fe8910ce2ab269181900360a00190a15050565b6006602052816000526040600020818154811061055957600080fd5b60009182526020909120600290910201805460019091015460ff9091169250905082565b60008381526004602081815260408084208151610120808201845282546001600160a01b039081168352600184015481168387015260028085015490911683860152600384015460608085019190915296840154608080850191909152600585015460a0850152600685015460ff90811660c0860152600786015460e0860152865193840187526008860180548552600987015498850198909852600a86015496840196909652600b85015497830197909752600c8401549296939561010088019592949093908501921690811115610658576106586138fc565b6002811115610669576106696138fc565b81526005820154602082015260069091015460ff808216151560408401526101008204811615156060840152620100009091041615156080909101529052506003549091508411156106ce5760405163357113b160e11b815260040160405180910390fd5b80610100015161010001516106f6576040516338c0a90160e11b815260040160405180910390fd5b80516001600160a01b03163303610720576040516314eeaa1160e01b815260040160405180910390fd5b610100810151511580159061073a57506101008101515183105b1561075857604051630103be3b60e21b815260040160405180910390fd5b60008161010001516020015111801561077957508281610100015160200151105b1561079757604051630103be3b60e21b815260040160405180910390fd5b828160e001516107a79190613a8f565b8161010001516060015110156107d0576040516352c7004b60e11b815260040160405180910390fd5b8051600085815260056020908152604080832033845290915290206001015415610ab25760008581526004602052604081206007018054869290610815908490613a8f565b9091555050600085815260046020526040812060050154610837904290613a8f565b600087815260056020818152604080842033855290915282200180549293508792909190610866908490613a8f565b909155505060008681526005602081815260408084203385528252808420815160a0810183528681528084018b81524293820184815260608301948552608083018881526007909401805460018181018355918a529690982092519590960290910193845551948301949094559151600282015590516003820155905160049091015561010083015160e0015115610a335760008681526004602081905260408220600581015491810154600390910180546449396c2000928a0290930291909104928392610936908490613a8f565b909155505060408085015190516323b872dd60e01b81526001600160a01b03909116906323b872dd9061097190869030908690600401613a38565b6020604051808303816000875af1158015610990573d6000803e3d6000fd5b505050506040513d601f19601f820116820180604052508101906109b49190613a5c565b5083602001516001600160a01b03166323b872dd3330896040518463ffffffff1660e01b81526004016109e993929190613a38565b6020604051808303816000875af1158015610a08573d6000803e3d6000fd5b505050506040513d601f19601f82011682018060405250810190610a2c9190613a5c565b5050610aac565b82602001516001600160a01b03166323b872dd3384886040518463ffffffff1660e01b8152600401610a6793929190613a38565b6020604051808303816000875af1158015610a86573d6000803e3d6000fd5b505050506040513d601f19601f82011682018060405250810190610aaa9190613a5c565b505b50610deb565b600085815260056020908152604080832033845290915281206001018054869290610ade908490613a8f565b909155505060008581526005602081815260408084203385529091528220018054869290610b0d908490613a8f565b909155505060008581526005602090815260408083203384528252808320429055878352600490915281206007018054869290610b4b908490613a8f565b9091555050600085815260046020526040902060050154610b6d904290613a8f565b60008681526005602090815260408083203380855290835281842060040194909455888352600782528083209383529290522080546001600160a01b0319166001600160a01b03851617905561010082015160e0015115610d035760008581526004602081905260408220600581015491810154600390910180546449396c200092890290930291909104928392610c06908490613a8f565b909155505060408084015190516323b872dd60e01b81526001600160a01b03909116906323b872dd90610c4190859030908690600401613a38565b6020604051808303816000875af1158015610c60573d6000803e3d6000fd5b505050506040513d601f19601f82011682018060405250810190610c849190613a5c565b5082602001516001600160a01b03166323b872dd3330886040518463ffffffff1660e01b8152600401610cb993929190613a38565b6020604051808303816000875af1158015610cd8573d6000803e3d6000fd5b505050506040513d601f19601f82011682018060405250810190610cfc9190613a5c565b5050610d7c565b81602001516001600160a01b03166323b872dd3383876040518463ffffffff1660e01b8152600401610d3793929190613a38565b6020604051808303816000875af1158015610d56573d6000803e3d6000fd5b505050506040513d601f19601f82011682018060405250810190610d7a9190613a5c565b505b6001826101000151608001516002811115610d9957610d996138fc565b03610da957610da9853386612d37565b604080518681523360208201529081018590527f7d2c8d11fc871184f4b6fa0575ec7c002afaa788f3ef851e6f3c91005f729fc5906060015b60405180910390a15b5050505050565b60008181526004602081815260408084208151610120808201845282546001600160a01b039081168352600184015481168387015260028085015490911683860152600384015460608085019190915296840154608080850191909152600585015460a0850152600685015460ff90811660c0860152600786015460e0860152865193840187526008860180548552600987015498850198909852600a86015496840196909652600b85015497830197909752600c8401549296939561010088019592949093908501921690811115610ecd57610ecd6138fc565b6002811115610ede57610ede6138fc565b815260058281015460208084019190915260069093015460ff80821615156040808601919091526101008304821615156060860152620100009092041615156080909301929092529290935260008781529181528282203380845291529181206007015493945091508190610f54908690611256565b9150915060005b8381101561104e576000838281518110610f7757610f77613aa2565b6020026020010151111561103c5760008681526005602090815260408083203384529091529020600701805442919083908110610fb657610fb6613aa2565b906000526020600020906005020160030181905550828181518110610fdd57610fdd613aa2565b60209081029190910181015160008881526005835260408082203383529093529190912060070180548390811061101657611016613aa2565b906000526020600020906005020160040160008282546110369190613a8f565b90915550505b8061104681613ab8565b915050610f5b565b5083610100015160e00151156110fb576000858152600460205260408120600301805483929061107f908490613ad1565b9091555050604084810151905163a9059cbb60e01b8152336004820152602481018390526001600160a01b039091169063a9059cbb906044016020604051808303816000875af11580156110d7573d6000803e3d6000fd5b505050506040513d601f19601f82011682018060405250810190610aac9190613a5c565b604080850151855191516370a0823160e01b81526001600160a01b039283166004820152600092909116906370a0823190602401602060405180830381865afa15801561114c573d6000803e3d6000fd5b505050506040513d601f19601f820116820180604052508101906111709190613ae4565b90508181101561119357604051631e9acf1760e31b815260040160405180910390fd5b604080860151865191516323b872dd60e01b81526001600160a01b03909116916323b872dd916111ca919033908790600401613a38565b6020604051808303816000875af11580156111e9573d6000803e3d6000fd5b505050506040513d601f19601f8201168201806040525081019061120d9190613a5c565b50604080518781523360208201529081018390527f24b5efa61dd1cfc659205a97fb8ed868f3cb8c81922bab2b96423e5de1de2cb79060600160405180910390a1505050505050565b60008281526005602090815260408083206001600160a01b038516845290915281206007015460609190815b818110156112d7576000611297878784612f65565b9050808583815181106112ac576112ac613aa2565b60209081029190910101526112c18185613a8f565b93505080806112cf90613ab8565b915050611282565b50509250929050565b60015460405163c3c5a54760e01b81523360048201526001600160a01b039091169063c3c5a54790602401602060405180830381865afa158015611328573d6000803e3d6000fd5b505050506040513d601f19601f8201168201806040525081019061134c9190613a5c565b6113695760405163aba4733960e01b815260040160405180910390fd5b60006113786020840184613afd565b6001600160a01b03160361139f57604051630f58058360e11b815260040160405180910390fd5b61271082604001351180156113b657506040820135155b156113d4576040516308af88a160e21b815260040160405180910390fd5b600380549060006113e483613ab8565b91905055506000600354905060006040518061012001604052808560600135815260200185608001358152602001856101000135815260200185610120013581526020018560e001602081019061143b9190613b18565b60ff16600281111561144f5761144f6138fc565b6002811115611460576114606138fc565b815261014086013560208201526040016114826101a087016101808801613b3b565b1515815260200161149b6101c087016101a08801613b3b565b151581526001602091820152604080516101208101909152338152919250818101906114c990870187613afd565b6001600160a01b0316815260200160006001600160a01b03168660200160208101906114f59190613afd565b6001600160a01b031614611518576115136040870160208801613afd565b611525565b6115256020870187613afd565b6001600160a01b03168152600060208201526040868101359082015260a0860135606082015260800161155e60e0870160c08801613b18565b60ff9081168252600060208084018290526040938401869052868252600480825291849020855181546001600160a01b03199081166001600160a01b0392831617835587840151600180850180548416928516929092179091558888015160028086018054909416919094161790915560608089015160038501556080808a01519685019690965560a0890151600585015560c089015160068501805460ff199081169290991691909117905560e0890151600785015561010089015180516008860190815595810151600986015597880151600a850155870151600b84015593860151600c8301805493979694959194909316918490811115611664576116646138fc565b021790555060a0820151600582015560c08201516006909101805460e08401516101009485015161ffff1990921693151561ff001916939093179215159093029190911762ff00001916620100009215159290920291909117905550600190506116d5610100860160e08701613b18565b60ff1660028111156116e9576116e96138fc565b60028111156116fa576116fa6138fc565b148061173b57506002611714610100860160e08701613b18565b60ff166002811115611728576117286138fc565b6002811115611739576117396138fc565b145b156117df5760005b83518160ff1610156117dd57600060405180604001604052808360ff168152602001868460ff168151811061177a5761177a613aa2565b60209081029190910181015190915260035460009081526006825260408120805460018082018355918352918390208451600290930201805460ff191660ff909316929092178255929091015191015550806117d581613b58565b915050611743565b505b6000828152600460208190526040808320600201549051636eb1769f60e11b815233928101929092523060248301526001600160a01b03169063dd62ed3e90604401602060405180830381865afa15801561183e573d6000803e3d6000fd5b505050506040513d601f19601f820116820180604052508101906118629190613ae4565b9050600019811461188657604051632be69edb60e21b815260040160405180910390fd5b6002543410156118a957604051630f25bb1560e21b815260040160405180910390fd5b600080546040516001600160a01b03909116913480156108fc02929091818181858888f193505050501580156118e3573d6000803e3d6000fd5b5060008381526004602052604090207f9f3595412801ae6406a07d2ee4f4814b632b39b9c27840ee7950779bff9645b390611922610160880188613b77565b604051610de293929190613c6e565b60018054600160a01b900463ffffffff161461194c57600080fd5b6001805463ffffffff60a01b1916600160a11b17815560008381526004602081815260408084208151610120808201845282546001600160a01b0390811683529783015488168286015260028084015490981682850152600383015460608084019190915295830154608080840191909152600584015460a0840152600684015460ff90811660c0850152600785015460e0850152855192830186526008850180548452600986015497840197909752600a85015495830195909552600b84015496820196909652600c8301549697919692956101008801959194919390850192911690811115611a3f57611a3f6138fc565b6002811115611a5057611a506138fc565b815260058281015460208084019190915260069093015460ff808216151560408086019190915261010083048216151560608601526201000090920416151560809093019290925292909352600088815282825283812033825290915291909120015491925050821115611ad75760405163e2f7703960e01b815260040160405180910390fd5b611ae083612591565b600083815260056020908152604080832033845290915290206006015460ff1615611b0e57611b0e83610df2565b60008381526005602090815260408083203384529091529020600401548015801590611b3957504281115b8015611b5757506000848152600460205260409020600e015460ff16155b15611b75576040516303cb96db60e21b815260040160405180910390fd5b60008481526005602090815260408083203384529091528120600101548411611b9e5783611bbc565b60008581526005602090815260408083203384529091529020600101545b6000868152600460205260408120600e0154919250908190819060ff168015611be457504285115b15611c185761271086610100015160a0015185611c019190613d19565b611c0b9190613d46565b611c159083613a8f565b91505b6000888152600560209081526040808320338452909152902060010154871115611ca257600088815260056020908152604080832033845290915290206007015415611ca25760008881526005602081815260408084203380865292529092200154611c90918a91611c8b908890613ad1565b613227565b9093509050611c9f8183613a8f565b91505b85610100015160e0015115611e27578115611dfc57600088815260046020819052604091829020600101548851925163a9059cbb60e01b81526001600160a01b039091169263a9059cbb92611d0d928791016001600160a01b03929092168252602082015260400190565b6020604051808303816000875af1158015611d2c573d6000803e3d6000fd5b505050506040513d601f19601f82011682018060405250810190611d509190613a5c565b506000888152600460205260409020600101546001600160a01b031663a9059cbb3384611d7d8789613a8f565b611d879190613ad1565b6040516001600160e01b031960e085901b1681526001600160a01b03909216600483015260248201526044016020604051808303816000875af1158015611dd2573d6000803e3d6000fd5b505050506040513d601f19601f82011682018060405250810190611df69190613a5c565b5061209b565b6000888152600460205260409020600101546001600160a01b031663a9059cbb33611d878688613a8f565b600088815260046020819052604080832060010154895191516370a0823160e01b81526001600160a01b039283169381019390935216906370a0823190602401602060405180830381865afa158015611e84573d6000803e3d6000fd5b505050506040513d601f19601f82011682018060405250810190611ea89190613ae4565b9050611eb48486613a8f565b811015611ed45760405163a43efa1360e01b815260040160405180910390fd5b82156120055760008981526004602081905260409182902060010154895192516323b872dd60e01b81526001600160a01b03909116926323b872dd92611f1e923391899101613a38565b6020604051808303816000875af1158015611f3d573d6000803e3d6000fd5b505050506040513d601f19601f82011682018060405250810190611f619190613a5c565b5060008981526004602052604090206001015487516001600160a01b03909116906323b872dd903386611f94898b613a8f565b611f9e9190613ad1565b6040518463ffffffff1660e01b8152600401611fbc93929190613a38565b6020604051808303816000875af1158015611fdb573d6000803e3d6000fd5b505050506040513d601f19601f82011682018060405250810190611fff9190613a5c565b50612099565b60008981526004602052604090206001015487516001600160a01b03909116906323b872dd9033612036888a613a8f565b6040518463ffffffff1660e01b815260040161205493929190613a38565b6020604051808303816000875af1158015612073573d6000803e3d6000fd5b505050506040513d601f19601f820116820180604052508101906120979190613a5c565b505b505b600088815260046020908152604080832060070180548890039055600580835281842033808652935292206001810180548890039055909101805486900390557fd466938aa4c985cc563fa0ec8e78e389c86391bc97bc1b51c3ea26c11ccedbaa9089906121098688613a8f565b604080519384526001600160a01b0390921660208401529082015260600160405180910390a150506001805463ffffffff60a01b1916600160a01b179055505050505050565b60008281526004602081815260408084208151610120808201845282546001600160a01b039081168352600184015481168387015260028085015490911683860152600384015460608085019190915296840154608080850191909152600585015460a0850152600685015460ff90811660c0860152600786015460e0860152865193840187526008860180548552600987015498850198909852600a86015496840196909652600b85015497830197909752600c840154889793969495610100880195939485019291169081111561222a5761222a6138fc565b600281111561223b5761223b6138fc565b815260058281015460208084019190915260069384015460ff80821615156040808701919091526101008084048316151560608089019190915262010000909404831615156080978801529790985260008e81528484528881206001600160a01b038f168252845288812089519889018a52805489526001810154898601526002810154898b01526003810154938901939093526004830154958801959095529281015460a087015293840154909116151560c08501526007830180548651818402810184019097528087529798509196939550919360e08601939092879084015b8282101561238157838290600052602060002090600502016040518060a0016040529081600082015481526020016001820154815260200160028201548152602001600382015481526020016004820154815250508152602001906001019061231d565b505050508152505090506000816080015190506000806123b88560c0015160ff1660068111156123b3576123b36138fc565b613601565b905080856101000151604001511180156123da57508461010001516040015142105b156123f0578461010001516040015191506123f4565b8091505b60008460400151426124069190613ad1565b905080831015612477574284101561245b57600061244b8a8760200151600091825260046020819052604090922060058101549201546449396c200091029091020490565b6060870151900397506124869050565b608086015160208601516449396c200091028202049650612486565b6000965050505050505061248d565b5050505050505b92915050565b600460208181526000928352604092839020805460018201546002808401546003850154968501546005860154600687015460078801548b5161012081018d5260088a018054825260098b01549b82019b909b52600a8a01549c81019c909c52600b89015460608d0152600c8901546001600160a01b039889169c9789169b989095169997989397929660ff928316969195909392608085019291169081111561253f5761253f6138fc565b6002811115612550576125506138fc565b81526005820154602082015260069091015460ff80821615156040840152610100820481161515606084015262010000909104161515608090910152905089565b60008181526004602081815260408084208151610120808201845282546001600160a01b039081168352600184015481168387015260028085015490911683860152600384015460608085019190915296840154608080850191909152600585015460a0850152600685015460ff90811660c0860152600786015460e0860152865193840187526008860180548552600987015498850198909852600a86015496840196909652600b85015497830197909752600c840154929693956101008801959294909390850192169081111561266c5761266c6138fc565b600281111561267d5761267d6138fc565b815260058281015460208084019190915260069093015460ff808216151560408086019190915261010083048216151560608601526201000090920416151560809093019290925292909352600087815291815291812033909152905250905060006126e9833361214f565b6000848152600560209081526040808320338452909152812042600282015560030180549293508392909190612720908490613a8f565b909155505061010082015160e00151156127d75760008381526004602052604081206003018054839290612755908490613ad1565b9091555050604082810151905163a9059cbb60e01b8152336004820152602481018390526001600160a01b039091169063a9059cbb906044016020604051808303816000875af11580156127ad573d6000803e3d6000fd5b505050506040513d601f19601f820116820180604052508101906127d19190613a5c565b506128ec565b604080830151835191516370a0823160e01b81526001600160a01b039283166004820152600092909116906370a0823190602401602060405180830381865afa158015612828573d6000803e3d6000fd5b505050506040513d601f19601f8201168201806040525081019061284c9190613ae4565b90508181101561286f57604051631e9acf1760e31b815260040160405180910390fd5b604080840151845191516323b872dd60e01b81526001600160a01b03909116916323b872dd916128a6919033908790600401613a38565b6020604051808303816000875af11580156128c5573d6000803e3d6000fd5b505050506040513d601f19601f820116820180604052508101906128e99190613a5c565b50505b604080518481523360208201529081018290527f24b5efa61dd1cfc659205a97fb8ed868f3cb8c81922bab2b96423e5de1de2cb79060600160405180910390a1505050565b60008281526004602052604090205482906001600160a01b0316331461296a576040516378576e3b60e01b815260040160405180910390fd5b6000838152600460205260409020600e01548215156201000090910460ff161515036129a9576040516349b23e6960e01b815260040160405180910390fd5b50600091825260046020526040909120600e018054911515620100000262ff000019909216919091179055565b600082815260066020908152604080832080548251818502810185019093528083528493849084015b82821015612a415760008481526020908190206040805180820190915260028502909101805460ff1682526001908101548284015290835290920191016129ff565b50505060008681526007602090815260408083206001600160a01b03808a1685529252822054939450929092169160001991505b8351811015612ad057336001600160a01b03841603612a9657809150612abe565b60008781526007602090815260408083206001600160a01b03808b1685529252909120541692505b80612ac881613ab8565b915050612a75565b506000198103612af35760405163033fc01160e21b815260040160405180910390fd5b6000838281518110612b0757612b07613aa2565b6020908102919091018101518101516000898152600580845260408083206001600160a01b038916845285528083208151610100810183528154815260018201548188015260028201548184015260038201546060820152600482015460808201529281015460a0840152600681015460ff16151560c084015260078101805483518189028101890190945280845295975093959294909360e0860193909190879084015b82821015612c1057838290600052602060002090600502016040518060a00160405290816000820154815260200160018201548152602001600282015481526020016003820154815260200160048201548152505081526020019060010190612bac565b5050509152505060008981526005602090815260408083206001600160a01b038916845290915281206002015491925090612c4b9042613ad1565b1115612ce8576000612c626227fd80612710613d19565b60008a81526005602090815260408083206001600160a01b038a1684529091529020600201548490612c949042613ad1565b60008c81526005602090815260408083206001600160a01b038c168452909152902060010154612cc49190613d19565b612cce9190613d19565b612cd89190613d46565b9050612ce48188613a8f565b9650505b60e08101515115612d2c5760005b8160e001515181101561248657612d0e898683612f65565b612d189088613a8f565b965080612d2481613ab8565b915050612cf6565b505050505092915050565b600083815260066020908152604080832080548251818502810185019093528083529192909190849084015b82821015612da55760008481526020908190206040805180820190915260028502909101805460ff168252600190810154828401529083529092019101612d63565b50505060008681526007602090815260408083206001600160a01b03808a168552925282205493945092909216919050805b8351811015612f5c576001600160a01b03831615612f5c576000848281518110612e0357612e03613aa2565b602002602001015160200151905061271086820281612e2457612e24613d30565b60008a8152600460208190526040918290206002810154905492516323b872dd60e01b81529490930496506001600160a01b03928316936323b872dd93612e719316918991899101613a38565b6020604051808303816000875af1158015612e90573d6000803e3d6000fd5b505050506040513d601f19601f82011682018060405250810190612eb49190613a5c565b506000888152600460209081526040918290206002015482518b81526001600160a01b03918216928101929092523382840152861660608201526080810185905290517ff4efa0d3c3b96e7d8ff7cf96eb58a178cb176b2abd451754a67fe8910ce2ab269181900360a00190a15060008781526007602090815260408083206001600160a01b0396871684529091529020549092169180612f5481613ab8565b915050612dd7565b50505050505050565b60008381526004602081815260408084208151610120808201845282546001600160a01b039081168352600184015481168387015260028085015490911683860152600384015460608085019190915296840154608080850191909152600585015460a0850152600685015460ff90811660c0860152600786015460e0860152865193840187526008860180548552600987015498850198909852600a86015496840196909652600b85015497830197909752600c8401548897939694956101008801959394850192911690811115613040576130406138fc565b6002811115613051576130516138fc565b815260058281015460208084019190915260069093015460ff80821615156040808601919091526101008304821615156060860152620100009092041615156080909301929092529290935260008a81529181528282206001600160a01b038a168352905290812060070180549394509092909150859081106130d6576130d6613aa2565b90600052602060002090600502016040518060a001604052908160008201548152602001600182015481526020016002820154815260200160038201548152602001600482015481525050905060008160000151905060008061314b8560c0015160ff1660068111156123b3576123b36138fc565b9050808561010001516040015111801561316d57508461010001516040015142105b1561318357846101000151604001519150613187565b8091505b60008460600151426131999190613ad1565b90508083101561320a57428410156131ee5760006131de8b8760200151600091825260046020819052604090922060058101549201546449396c200091029091020490565b6080870151900397506132199050565b608086015160208601516449396c200091028202049650613219565b60009650505050505050613220565b5050505050505b9392505050565b60008381526004602081815260408084208151610120808201845282546001600160a01b039081168352600184015481168387015260028085015490911683860152600384015460608085019190915296840154608080850191909152600585015460a0850152600685015460ff90811660c0860152600786015460e0860152865193840187526008860180548552600987015498850198909852600a86015496840196909652600b85015497830197909752600c84015488978897949661010088019593918501921690811115613301576133016138fc565b6002811115613312576133126138fc565b815260058281015460208084019190915260069093015460ff80821615156040808601919091526101008304821615156060860152620100009092041615156080909301929092529290935260008b81529181528282206001600160a01b038b168352815282822060070180548451818402810184019095528085529596509194929350909190849084015b8282101561340257838290600052602060002090600502016040518060a0016040529081600082015481526020016001820154815260200160028201548152602001600382015481526020016004820154815250508152602001906001019061339e565b50505050905060005b81518110156135f657600082828151811061342857613428613aa2565b6020026020010151602001518711613440578661345f565b82828151811061345257613452613aa2565b6020026020010151602001515b90504283838151811061347457613474613aa2565b6020026020010151600001511080613492575083610100015160c001515b156135bc5760008981526005602090815260408083206001600160a01b038c16845290915290206007018054829190849081106134d1576134d1613aa2565b906000526020600020906005020160010160008282546134f19190613ad1565b909155505060008981526005602081815260408084206001600160a01b038d1685529091528220018054839290613529908490613ad1565b90915550506000898152600460205260408120600701805483929061354f908490613ad1565b9091555061355f90508187613a8f565b955083610100015160c00151156135ab5761271084610100015160a00151876135889190613d19565b6135929190613d46565b61359c9086613a8f565b94506135a88587613ad1565b95505b6135b58188613ad1565b96506135e3565b83610100015160c001516135e3576040516303cb96db60e21b815260040160405180910390fd5b50806135ee81613ab8565b91505061340b565b505050935093915050565b600080826006811115613616576136166138fc565b036136245750610e10919050565b6001826006811115613638576136386138fc565b03613647575062015180919050565b600282600681111561365b5761365b6138fc565b0361366a575062093a80919050565b600382600681111561367e5761367e6138fc565b0361368d57506227fd80919050565b60048260068111156136a1576136a16138fc565b036136b05750629ff600919050565b60058260068111156136c4576136c46138fc565b036136d75761248d6227fd806006613d19565b60068260068111156136eb576136eb6138fc565b036136fb57506301dfe200919050565b919050565b60006020828403121561371257600080fd5b5035919050565b6000806040838503121561372c57600080fd5b50508035926020909101359150565b80356001600160a01b03811681146136fb57600080fd5b60008060006060848603121561376757600080fd5b833592506020840135915061377e6040850161373b565b90509250925092565b6000806040838503121561379a57600080fd5b823591506137aa6020840161373b565b90509250929050565b604080825283519082018190526000906020906060840190828701845b828110156137ec578151845292840192908401906001016137d0565b50505092019290925292915050565b634e487b7160e01b600052604160045260246000fd5b6000806040838503121561382457600080fd5b823567ffffffffffffffff8082111561383c57600080fd5b908401906101c0828703121561385157600080fd5b909250602090848201358181111561386857600080fd5b8501601f8101871361387957600080fd5b80358281111561388b5761388b6137fb565b8060051b604051601f19603f830116810181811086821117156138b0576138b06137fb565b6040529182528482019350828101850191898311156138ce57600080fd5b928501925b828410156138ec578335855293850193928501926138d3565b8096505050505050509250929050565b634e487b7160e01b600052602160045260246000fd5b6003811061393057634e487b7160e01b600052602160045260246000fd5b9052565b60006102208201905060018060a01b03808c168352808b166020840152808a166040840152508760608301528660808301528560a083015260ff851660c08301528360e083015261010083518184015260208401516101208401526040840151610140840152606084015161016084015260808401516139b8610180850182613912565b5060a08401516101a084015260c084015115156101c084015260e084015115156101e08401529092015115156102009091015298975050505050505050565b8015158114613a0557600080fd5b50565b60008060408385031215613a1b57600080fd5b823591506020830135613a2d816139f7565b809150509250929050565b6001600160a01b039384168152919092166020820152604081019190915260600190565b600060208284031215613a6e57600080fd5b8151613220816139f7565b634e487b7160e01b600052601160045260246000fd5b8082018082111561248d5761248d613a79565b634e487b7160e01b600052603260045260246000fd5b600060018201613aca57613aca613a79565b5060010190565b8181038181111561248d5761248d613a79565b600060208284031215613af657600080fd5b5051919050565b600060208284031215613b0f57600080fd5b6132208261373b565b600060208284031215613b2a57600080fd5b813560ff8116811461322057600080fd5b600060208284031215613b4d57600080fd5b8135613220816139f7565b600060ff821660ff8103613b6e57613b6e613a79565b60010192915050565b6000808335601e19843603018112613b8e57600080fd5b83018035915067ffffffffffffffff821115613ba957600080fd5b602001915036819003821315613bbe57600080fd5b9250929050565b80548252600181015460208301526002810154604083015260038101546060830152600481015460ff16613bfc6080840182613912565b50600581015460a0830152600681015460ff8116151560c0840152613c2b60e0840160ff8360081c1615159052565b613c40610100840160ff8360101c1615159052565b505050565b81835281816020850137506000828201602090810191909152601f909101601f19169091010190565b6000610240613c9583613c8888546001600160a01b031690565b6001600160a01b03169052565b60018601546001600160a01b03908116602085015260028701541660408401526003860154606084015260048601546080840152600586015460a0840152600686015460ff1660c0840152600786015460e0840152613cfb610100840160088801613bc5565b80610220840152613d0f8184018587613c45565b9695505050505050565b808202811582820484141761248d5761248d613a79565b634e487b7160e01b600052601260045260246000fd5b600082613d6357634e487b7160e01b600052601260045260246000fd5b50049056fea264697066735822122019aeaeed4f5fb4775f264762edb290c2c35c719e6800ab23778b4a0cc10ad87d64736f6c63430008130033",
    "sourcePath": "/home/asim/AlgoAlliance/centher/centher.contracts.staking/src/CentherStaking-dep.sol",
    "compiler": {
        "name": "solc",
        "version": "0.8.19+commit.7dd6d404"
    },
    "functionHashes": {
        "calculateBatchReward(uint256,address)": "9170947e",
        "calculateReward(uint256,address)": "a18f07a0",
        "calculateTimeBasedRewardForRef(uint256,address)": "c632a453",
        "claimReward(uint256)": "ae169a50",
        "claimRewardsForRestakers(uint256)": "8af35032",
        "claimTimeBasedRewardForRef(uint256)": "0250cc36",
        "createPool((address,address,uint256,uint256,uint256,uint256,uint8,uint8,uint256,uint256,uint256,string,bool,bool),uint256[])": "9981b08a",
        "idToPoolInfo(uint256)": "a59c55ee",
        "idToSettings(uint256,uint256)": "4f957618",
        "platform()": "4bde38c8",
        "platformFees()": "194a4e7e",
        "poolIds()": "9bc38a56",
        "register()": "1aa3a008",
        "stake(uint256,uint256,address)": "7628a37d",
        "togglePoolState(uint256,bool)": "b8b73d5e",
        "unstake(uint256,uint256)": "9e2c8a5b",
        "userAddressToReferrerAddress(uint256,address)": "9efdae99",
        "userInfo(uint256,address)": "93f1a40b"
    },
    "gasEstimates": {
        "creation": {
            "codeDepositCost": "3154800",
            "executionCost": "infinite",
            "totalCost": "infinite"
        },
        "external": {
            "calculateBatchReward(uint256,address)": "infinite",
            "calculateReward(uint256,address)": "infinite",
            "calculateTimeBasedRewardForRef(uint256,address)": "infinite",
            "claimReward(uint256)": "infinite",
            "claimRewardsForRestakers(uint256)": "infinite",
            "claimTimeBasedRewardForRef(uint256)": "infinite",
            "createPool((address,address,uint256,uint256,uint256,uint256,uint8,uint8,uint256,uint256,uint256,string,bool,bool),uint256[])": "infinite",
            "idToPoolInfo(uint256)": "33009",
            "idToSettings(uint256,uint256)": "6863",
            "platform()": "2427",
            "platformFees()": "2330",
            "poolIds()": "2329",
            "register()": "2405",
            "stake(uint256,uint256,address)": "infinite",
            "togglePoolState(uint256,bool)": "29172",
            "unstake(uint256,uint256)": "infinite",
            "userAddressToReferrerAddress(uint256,address)": "2745",
            "userInfo(uint256,address)": "15550"
        },
        "internal": {
            "_additionalUnstake(uint256,address,uint256)": "infinite",
            "_calculateUserTotalAccReward(uint256,uint256)": "infinite",
            "_checkClaimPeriod(enum ICentherStaking.ClaimDuration)": "infinite",
            "_transferFixRewardToReferrals(uint256,address,uint256)": "infinite",
            "calculateRewardForReStakers(uint256,address,uint256)": "infinite"
        }
    }
}