{
    "contractName": "CentherRegistration",
    "abi": [
        {
            "inputs": [],
            "stateMutability": "nonpayable",
            "type": "constructor"
        },
        {
            "anonymous": false,
            "inputs": [
                {
                    "indexed": true,
                    "internalType": "address",
                    "name": "previousOwner",
                    "type": "address"
                },
                {
                    "indexed": true,
                    "internalType": "address",
                    "name": "newOwner",
                    "type": "address"
                }
            ],
            "name": "OwnershipTransferred",
            "type": "event"
        },
        {
            "anonymous": false,
            "inputs": [
                {
                    "indexed": true,
                    "internalType": "address",
                    "name": "user",
                    "type": "address"
                },
                {
                    "indexed": false,
                    "internalType": "uint256",
                    "name": "paidAmount",
                    "type": "uint256"
                },
                {
                    "indexed": true,
                    "internalType": "address",
                    "name": "referrer",
                    "type": "address"
                }
            ],
            "name": "RegisterWithReferrer",
            "type": "event"
        },
        {
            "anonymous": false,
            "inputs": [
                {
                    "indexed": true,
                    "internalType": "address",
                    "name": "user",
                    "type": "address"
                },
                {
                    "indexed": false,
                    "internalType": "uint256",
                    "name": "paidAmount",
                    "type": "uint256"
                }
            ],
            "name": "RegisterWithoutReferrer",
            "type": "event"
        },
        {
            "anonymous": false,
            "inputs": [
                {
                    "indexed": true,
                    "internalType": "address",
                    "name": "referrer",
                    "type": "address"
                },
                {
                    "indexed": true,
                    "internalType": "address",
                    "name": "user",
                    "type": "address"
                },
                {
                    "indexed": false,
                    "internalType": "uint8",
                    "name": "level",
                    "type": "uint8"
                }
            ],
            "name": "SetReferrer",
            "type": "event"
        },
        {
            "inputs": [],
            "name": "_pause",
            "outputs": [
                {
                    "internalType": "bool",
                    "name": "",
                    "type": "bool"
                }
            ],
            "stateMutability": "view",
            "type": "function"
        },
        {
            "inputs": [
                {
                    "internalType": "uint256",
                    "name": "feeWithoutReferrer",
                    "type": "uint256"
                },
                {
                    "internalType": "uint256",
                    "name": "feeWithReferrer",
                    "type": "uint256"
                }
            ],
            "name": "changeFees",
            "outputs": [],
            "stateMutability": "nonpayable",
            "type": "function"
        },
        {
            "inputs": [
                {
                    "internalType": "address",
                    "name": "_userAddress",
                    "type": "address"
                }
            ],
            "name": "getReferrerAddresses",
            "outputs": [
                {
                    "internalType": "address[]",
                    "name": "referrerAddresses",
                    "type": "address[]"
                }
            ],
            "stateMutability": "view",
            "type": "function"
        },
        {
            "inputs": [
                {
                    "internalType": "address",
                    "name": "_user",
                    "type": "address"
                }
            ],
            "name": "isRegistered",
            "outputs": [
                {
                    "internalType": "bool",
                    "name": "",
                    "type": "bool"
                }
            ],
            "stateMutability": "view",
            "type": "function"
        },
        {
            "inputs": [
                {
                    "internalType": "address",
                    "name": "",
                    "type": "address"
                }
            ],
            "name": "isUserRegisteredWithAddress",
            "outputs": [
                {
                    "internalType": "bool",
                    "name": "",
                    "type": "bool"
                }
            ],
            "stateMutability": "view",
            "type": "function"
        },
        {
            "inputs": [],
            "name": "operator",
            "outputs": [
                {
                    "internalType": "address",
                    "name": "",
                    "type": "address"
                }
            ],
            "stateMutability": "view",
            "type": "function"
        },
        {
            "inputs": [],
            "name": "owner",
            "outputs": [
                {
                    "internalType": "address",
                    "name": "",
                    "type": "address"
                }
            ],
            "stateMutability": "view",
            "type": "function"
        },
        {
            "inputs": [],
            "name": "pause",
            "outputs": [],
            "stateMutability": "nonpayable",
            "type": "function"
        },
        {
            "inputs": [],
            "name": "referralDeep",
            "outputs": [
                {
                    "internalType": "uint8",
                    "name": "",
                    "type": "uint8"
                }
            ],
            "stateMutability": "view",
            "type": "function"
        },
        {
            "inputs": [
                {
                    "internalType": "address",
                    "name": "user",
                    "type": "address"
                },
                {
                    "internalType": "address",
                    "name": "referrerAddress",
                    "type": "address"
                }
            ],
            "name": "registerForOwner",
            "outputs": [],
            "stateMutability": "nonpayable",
            "type": "function"
        },
        {
            "inputs": [
                {
                    "internalType": "address[]",
                    "name": "users",
                    "type": "address[]"
                },
                {
                    "internalType": "address[]",
                    "name": "referrerAddresses",
                    "type": "address[]"
                }
            ],
            "name": "registerForOwnerBatch",
            "outputs": [],
            "stateMutability": "nonpayable",
            "type": "function"
        },
        {
            "inputs": [
                {
                    "internalType": "address",
                    "name": "referrerAddress",
                    "type": "address"
                }
            ],
            "name": "registerWithReferrer",
            "outputs": [],
            "stateMutability": "payable",
            "type": "function"
        },
        {
            "inputs": [],
            "name": "registerWithoutReferrer",
            "outputs": [],
            "stateMutability": "payable",
            "type": "function"
        },
        {
            "inputs": [],
            "name": "registrationFeeWithReferrer",
            "outputs": [
                {
                    "internalType": "uint256",
                    "name": "",
                    "type": "uint256"
                }
            ],
            "stateMutability": "view",
            "type": "function"
        },
        {
            "inputs": [],
            "name": "registrationFeeWithoutReferrer",
            "outputs": [
                {
                    "internalType": "uint256",
                    "name": "",
                    "type": "uint256"
                }
            ],
            "stateMutability": "view",
            "type": "function"
        },
        {
            "inputs": [],
            "name": "renounceOwnership",
            "outputs": [],
            "stateMutability": "nonpayable",
            "type": "function"
        },
        {
            "inputs": [
                {
                    "internalType": "address",
                    "name": "_operator",
                    "type": "address"
                }
            ],
            "name": "setOperator",
            "outputs": [],
            "stateMutability": "nonpayable",
            "type": "function"
        },
        {
            "inputs": [
                {
                    "internalType": "address",
                    "name": "newOwner",
                    "type": "address"
                }
            ],
            "name": "transferOwnership",
            "outputs": [],
            "stateMutability": "nonpayable",
            "type": "function"
        },
        {
            "inputs": [],
            "name": "unPause",
            "outputs": [],
            "stateMutability": "nonpayable",
            "type": "function"
        },
        {
            "inputs": [
                {
                    "internalType": "address",
                    "name": "",
                    "type": "address"
                }
            ],
            "name": "userAddressToReferrerAddress",
            "outputs": [
                {
                    "internalType": "address",
                    "name": "",
                    "type": "address"
                }
            ],
            "stateMutability": "view",
            "type": "function"
        },
        {
            "inputs": [],
            "name": "withdraw",
            "outputs": [],
            "stateMutability": "nonpayable",
            "type": "function"
        }
    ],
    "bytecode": "608060405234801561001057600080fd5b5061001a3361002f565b6658d15e17628000600355600060045561007f565b600080546001600160a01b038381166001600160a01b0319831681178455604051919092169283917f8be0079c531659141344cd1fd0a4f28419497f9722a3daafe3b4186f6b6457e09190a35050565b6112278061008e6000396000f3fe60806040526004361061012a5760003560e01c8063570ca735116100ab578063a22775131161006f578063a22775131461033a578063aaa0dc7514610342578063b3ab15fb14610369578063c3c5a54714610389578063f2fde38b146103c2578063f7b188a5146103e257600080fd5b8063570ca735146102ba578063715018a6146102df5780638456cb59146102f45780638da5cb5b14610309578063968763a01461032757600080fd5b80633ccfd60b116100f25780633ccfd60b146101fd5780634ce13d7a146102125780634d90db4f146102605780634feba02a146102805780635632fe2a146102a457600080fd5b80630f3e76201461012f578063165ca9071461015157806321ecff5b1461019657806326b9af1a146101b6578063320b2ad9146101e3575b600080fd5b34801561013b57600080fd5b5061014f61014a366004610f8e565b6103f7565b005b34801561015d57600080fd5b5061018161016c366004610fc1565b60016020526000908152604090205460ff1681565b60405190151581526020015b60405180910390f35b3480156101a257600080fd5b5061014f6101b1366004610fe3565b6106a7565b3480156101c257600080fd5b506101d66101d1366004610fc1565b6106ba565b60405161018d9190611005565b3480156101ef57600080fd5b506005546101819060ff1681565b34801561020957600080fd5b5061014f610758565b34801561021e57600080fd5b5061024861022d366004610fc1565b6002602052600090815260409020546001600160a01b031681565b6040516001600160a01b03909116815260200161018d565b34801561026c57600080fd5b5061014f61027b36600461109e565b6107cb565b34801561028c57600080fd5b5061029660035481565b60405190815260200161018d565b3480156102b057600080fd5b5061029660045481565b3480156102c657600080fd5b506005546102489061010090046001600160a01b031681565b3480156102eb57600080fd5b5061014f610ae7565b34801561030057600080fd5b5061014f610afb565b34801561031557600080fd5b506000546001600160a01b0316610248565b61014f610335366004610fc1565b610b12565b61014f610d23565b34801561034e57600080fd5b50610357600681565b60405160ff909116815260200161018d565b34801561037557600080fd5b5061014f610384366004610fc1565b610e0e565b34801561039557600080fd5b506101816103a4366004610fc1565b6001600160a01b031660009081526001602052604090205460ff1690565b3480156103ce57600080fd5b5061014f6103dd366004610fc1565b610e3e565b3480156103ee57600080fd5b5061014f610eb4565b60055460ff16156104235760405162461bcd60e51b815260040161041a9061110a565b60405180910390fd5b60055461010090046001600160a01b0316331461047c5760405162461bcd60e51b815260206004820152601760248201527631b0b63632b92fb4b9afb737ba2fb7b832b930ba37b91760491b604482015260640161041a565b6001600160a01b03821660009081526001602052604090205460ff16156104b55760405162461bcd60e51b815260040161041a90611137565b6001600160a01b038083166000908152600160208190526040909120805460ff19169091179055811661052a57816001600160a01b03167f3b93be0674d82e136fe6502102b494d101b9e26efb9eb0de1ece955a8ce7c822600060405161051e91815260200190565b60405180910390a25050565b6001600160a01b03811660009081526001602052604090205460ff1661058c5760405162461bcd60e51b81526020600482015260176024820152761c9959995c9c995c97db9bdd17dc9959da5cdd195c9959604a1b604482015260640161041a565b6001600160a01b03828116600090815260026020526040812080546001600160a01b0319169284169290921790915582905b600660ff82161015610653576001600160a01b0380831660009081526002602052604090205416806105f05750610653565b6001600160a01b038086169082167f4fbeebeb4cd20390708eae3391c64dcbdcca186056a73f40f438024724bd507c61062a856001611184565b60405160ff909116815260200160405180910390a391508061064b816111a3565b9150506105be565b50816001600160a01b0316836001600160a01b03167f1a0d8e33b176b05ae40effe40629fdee31ed39b3f13770009e15a96cb0d8e553600060405161069a91815260200190565b60405180910390a3505050565b6106af610ec8565b600391909155600455565b60408051600680825260e082019092526060918391906020820160c08036833701905050915060005b600660ff82161015610751576001600160a01b0380831660009081526002602052604090205484519116908190859060ff8516908110610725576107256111c2565b6001600160a01b0390921660209283029190910190910152915080610749816111a3565b9150506106e3565b5050919050565b610760610ec8565b6000471161079c5760405162461bcd60e51b8152602060048201526009602482015268273790333ab732399760b91b604482015260640161041a565b60405133904780156108fc02916000818181858888f193505050501580156107c8573d6000803e3d6000fd5b50565b60055460ff16156107ee5760405162461bcd60e51b815260040161041a9061110a565b60055461010090046001600160a01b031633146108475760405162461bcd60e51b815260206004820152601760248201527631b0b63632b92fb4b9afb737ba2fb7b832b930ba37b91760491b604482015260640161041a565b8281146108a25760405162461bcd60e51b8152602060048201526024808201527f75736572735f616e645f7265666572726572735f6c656e6774685f6e6f745f6d6044820152630c2e8c6d60e31b606482015260840161041a565b60005b83811015610ae05760008585838181106108c1576108c16111c2565b90506020020160208101906108d69190610fc1565b905060008484848181106108ec576108ec6111c2565b90506020020160208101906109019190610fc1565b6001600160a01b03831660009081526001602052604090205490915060ff161561093d5760405162461bcd60e51b815260040161041a90611137565b6001600160a01b038083166000908152600160208190526040909120805460ff1916909117905581166109b357816001600160a01b03167f3b93be0674d82e136fe6502102b494d101b9e26efb9eb0de1ece955a8ce7c82260006040516109a691815260200190565b60405180910390a2610acb565b6001600160a01b03828116600090815260026020526040812080546001600160a01b0319169284169290921790915582905b600660ff82161015610a7a576001600160a01b038083166000908152600260205260409020541680610a175750610a7a565b6001600160a01b038086169082167f4fbeebeb4cd20390708eae3391c64dcbdcca186056a73f40f438024724bd507c610a51856001611184565b60405160ff909116815260200160405180910390a3915080610a72816111a3565b9150506109e5565b50816001600160a01b0316836001600160a01b03167f1a0d8e33b176b05ae40effe40629fdee31ed39b3f13770009e15a96cb0d8e5536000604051610ac191815260200190565b60405180910390a3505b50508080610ad8906111d8565b9150506108a5565b5050505050565b610aef610ec8565b610af96000610f22565b565b610b03610ec8565b6005805460ff19166001179055565b60055460ff1615610b355760405162461bcd60e51b815260040161041a9061110a565b600454341015610b7c5760405162461bcd60e51b8152602060048201526012602482015271696e73756666696369656e745f66756e647360701b604482015260640161041a565b3360009081526001602052604090205460ff1615610bac5760405162461bcd60e51b815260040161041a90611137565b6001600160a01b03811660009081526001602052604090205460ff16610c0e5760405162461bcd60e51b81526020600482015260176024820152761c9959995c9c995c97db9bdd17dc9959da5cdd195c9959604a1b604482015260640161041a565b336000818152600160208181526040808420805460ff191690931790925560029052812080546001600160a01b0319166001600160a01b0385161790555b600660ff82161015610cde576001600160a01b038083166000908152600260205260409020541680610c7e5750610cde565b336001600160a01b0382167f4fbeebeb4cd20390708eae3391c64dcbdcca186056a73f40f438024724bd507c610cb5856001611184565b60405160ff909116815260200160405180910390a3915080610cd6816111a3565b915050610c4c565b506040513481526001600160a01b0383169033907f1a0d8e33b176b05ae40effe40629fdee31ed39b3f13770009e15a96cb0d8e5539060200160405180910390a35050565b60055460ff1615610d465760405162461bcd60e51b815260040161041a9061110a565b600354341015610d8d5760405162461bcd60e51b8152602060048201526012602482015271696e73756666696369656e745f66756e647360701b604482015260640161041a565b3360009081526001602052604090205460ff1615610dbd5760405162461bcd60e51b815260040161041a90611137565b33600081815260016020818152604092839020805460ff191690921790915590513481527f3b93be0674d82e136fe6502102b494d101b9e26efb9eb0de1ece955a8ce7c822910160405180910390a2565b610e16610ec8565b600580546001600160a01b0390921661010002610100600160a81b0319909216919091179055565b610e46610ec8565b6001600160a01b038116610eab5760405162461bcd60e51b815260206004820152602660248201527f4f776e61626c653a206e6577206f776e657220697320746865207a65726f206160448201526564647265737360d01b606482015260840161041a565b6107c881610f22565b610ebc610ec8565b6005805460ff19169055565b6000546001600160a01b03163314610af95760405162461bcd60e51b815260206004820181905260248201527f4f776e61626c653a2063616c6c6572206973206e6f7420746865206f776e6572604482015260640161041a565b600080546001600160a01b038381166001600160a01b0319831681178455604051919092169283917f8be0079c531659141344cd1fd0a4f28419497f9722a3daafe3b4186f6b6457e09190a35050565b80356001600160a01b0381168114610f8957600080fd5b919050565b60008060408385031215610fa157600080fd5b610faa83610f72565b9150610fb860208401610f72565b90509250929050565b600060208284031215610fd357600080fd5b610fdc82610f72565b9392505050565b60008060408385031215610ff657600080fd5b50508035926020909101359150565b6020808252825182820181905260009190848201906040850190845b818110156110465783516001600160a01b031683529284019291840191600101611021565b50909695505050505050565b60008083601f84011261106457600080fd5b50813567ffffffffffffffff81111561107c57600080fd5b6020830191508360208260051b850101111561109757600080fd5b9250929050565b600080600080604085870312156110b457600080fd5b843567ffffffffffffffff808211156110cc57600080fd5b6110d888838901611052565b909650945060208701359150808211156110f157600080fd5b506110fe87828801611052565b95989497509550505050565b6020808252601390820152721c9959da5cdd1c985d1a5bdb97dc185d5cd959606a1b604082015260600190565b60208082526017908201527f757365725f616c72656164795f72656769737465726564000000000000000000604082015260600190565b634e487b7160e01b600052601160045260246000fd5b60ff818116838216019081111561119d5761119d61116e565b92915050565b600060ff821660ff81036111b9576111b961116e565b60010192915050565b634e487b7160e01b600052603260045260246000fd5b6000600182016111ea576111ea61116e565b506001019056fea2646970667358221220fb704acc581aac2c939a9607701a066d073d69ef010b147ca1e7fcdf59a8f07464736f6c63430008130033",
    "sourcePath": "/home/asim/AlgoAlliance/centher/centher.contracts.staking/src/utils/CentherRegistration.sol",
    "compiler": {
        "name": "solc",
        "version": "0.8.19+commit.7dd6d404"
    },
    "functionHashes": {
        "_pause()": "320b2ad9",
        "changeFees(uint256,uint256)": "21ecff5b",
        "getReferrerAddresses(address)": "26b9af1a",
        "isRegistered(address)": "c3c5a547",
        "isUserRegisteredWithAddress(address)": "165ca907",
        "operator()": "570ca735",
        "owner()": "8da5cb5b",
        "pause()": "8456cb59",
        "referralDeep()": "aaa0dc75",
        "registerForOwner(address,address)": "0f3e7620",
        "registerForOwnerBatch(address[],address[])": "4d90db4f",
        "registerWithReferrer(address)": "968763a0",
        "registerWithoutReferrer()": "a2277513",
        "registrationFeeWithReferrer()": "5632fe2a",
        "registrationFeeWithoutReferrer()": "4feba02a",
        "renounceOwnership()": "715018a6",
        "setOperator(address)": "b3ab15fb",
        "transferOwnership(address)": "f2fde38b",
        "unPause()": "f7b188a5",
        "userAddressToReferrerAddress(address)": "4ce13d7a",
        "withdraw()": "3ccfd60b"
    },
    "gasEstimates": {
        "creation": {
            "codeDepositCost": "929400",
            "executionCost": "53921",
            "totalCost": "983321"
        },
        "external": {
            "_pause()": "2411",
            "changeFees(uint256,uint256)": "46691",
            "getReferrerAddresses(address)": "infinite",
            "isRegistered(address)": "2626",
            "isUserRegisteredWithAddress(address)": "2566",
            "operator()": "2371",
            "owner()": "2420",
            "pause()": "26599",
            "referralDeep()": "248",
            "registerForOwner(address,address)": "infinite",
            "registerForOwnerBatch(address[],address[])": "infinite",
            "registerWithReferrer(address)": "infinite",
            "registerWithoutReferrer()": "32325",
            "registrationFeeWithReferrer()": "2406",
            "registrationFeeWithoutReferrer()": "2384",
            "renounceOwnership()": "infinite",
            "setOperator(address)": "26812",
            "transferOwnership(address)": "28443",
            "unPause()": "26658",
            "userAddressToReferrerAddress(address)": "2603",
            "withdraw()": "infinite"
        }
    }
}